:1000000015C0DCC0DBC0DAC0D9C0D8C0D7C0D6C0EC
:10001000D5C0D4C0D3C078C0D1C0D0C0CFC0CEC0AE
:10002000CDC0CCC0CBC000600062800011241FBED8
:10003000CFEDCDBFE6E2F0E040E017C0B591A5916D
:1000400035912591059107FD0CC095918591EF01A2
:10005000F92FE82F05900D92A217B307D9F7FE01EB
:1000600004C01D92A217B307E1F7EB32F40731F792
:0800700003D000C0F894FFCF9B
:10007800CF93DF93CDB7DD27C451CDBFF8948AE481
:1000880087BB11BA80E688BB12BA80E280BD8BBFFD
:1000980010926000789400E0B09B02C0C19A01C041
:1000A800C198B29B02C0C39A01C0C39880916000F6
:1000B800882361F01092600080916100E1E0F0E037
:1000C800EC0FFD1FE00FF11D80830F5F8091610031
:1000D8008A3039F4002301F3CE0101967C0110E047
:1000E80003C00431C9F6F8CFF70181917F0180324E
:1000F80010F08F5F45D01F5F1017B0F300E0CCCF32
:100108001F920F920FB60F9211248F939F93B59958
:1001180030C0F8948CE98A95F1F78CE98A95F1F763
:100128001092610098E08CEC8A95F1F78CEC8A9536
:10013800F1F782ED8A95F1F78091610086958093B9
:100148006100B59B05C08091610080688093610063
:10015800915049F78CEC8A95F1F78CEC8A95F1F778
:1001680082ED8A95F1F781E08093600080E28ABF92
:1001780078949F918F910F900FBE0F901F901895B4
:10018800F89490E0880F991F92602AE080FF02C0DF
:10019800C69A01C0C698969587953CEC3A95F1F7B2
:1001A8003CEC3A95F1F732ED3A95F1F7215071F7B9
:0401B800789408959A
:0201BC0021CF51
:00000001FF
