:1000000015C095C37CC393C325C391C390C38FC34D
:100010008EC38DC38CC38BC38AC3C0C288C387C33E
:1000200086C385C384C300600077800011241FBE8F
:10003000CFEDCDBFE6E2F0E040E017C0B591A5916D
:1000400035912591059107FD0CC095918591EF01A2
:10005000F92FE82F05900D92A217B307D9F7FE01EB
:1000600004C01D92A217B307E1F7EB32F40731F792
:0800700003D000C0F894FFCF9B
:10007800CF93DF93CDB7DD27C850CDBFF89480E18B
:1000880087BB82E381BB18BA81E582BB82E080BF6F
:1000980013BE9FE196BF12BE1FBC98E09EBD20E232
:1000A80030E03BBD2ABD1DBC1CBC21E429BF95BF67
:1000B8001BBE12B819B81CB81BB898E19AB996E0DB
:1000C80093B912B89AE099B910926200109265003B
:1000D80095E599839A839FEF9093600090936300CE
:1000E80080936600869904C080E886BD86E086BD58
:1000F8007894E12CF12CC12CD12CA12CB12C10E03E
:10010800712C812C00E099249A94332433946894B8
:10011800442445F80F2EF8E25F2EF02D0F2EF0EA5A
:100128006F2EF02D0F2EF1EC2F2EF02D03C0102F77
:1001380001C0802E9091620080916500981791F01F
:100148005D9B10C0E091650081E08E0F8093650093
:10015800F0E0E959FF4F80818CB9809165008F707C
:1001680080936500809160008A3009F0C1C1909247
:100178006000E0916200F0E0E959FF4F9082E09161
:100188006200F0E0E859FF4F82EF8083E09162005F
:10019800F0E080916400E759FF4F8083E0916200AE
:1001A800F0E0E659FF4F1082809162008C5F8093E7
:1001B8006200809162008F7080936200112309F4BD
:1001C80054C0113C51F118F4103C31F0B3CF123C3B
:1001D80019F0133C11F1AECF5F9BACCF103C19F472
:1001E800E0FEB5C1A7C1123C09F085C12982DA82B7
:1001F800CB828CB18C83BE016B5F7F4FCE010196A1
:1002080053D28FEFC81AD80A8FEFE81AF80AAE143B
:10021800BF0409F08FCF102F8DCF9091620080918D
:100228006500981387CF113C19F4E0FEA8C19CC162
:10023800133C09F06BC16982DA82CB820C83BE0160
:100248006B5F7F4FCE0101962FD28FEFC81AD80A65
:100258005D9BFECF88858CB98FEFE81AF80AAE143B
:10026800BF0409F77501102F65CF5F9B0CC08BB1D8
:100278008871782A8CB1E1E0F0E0EC0FFD1FE80D01
:10028800F11D8083839484E0881251CF772081F117
:10029800E091620081E08E0F80936200F0E0E959FE
:1002A800FF4F7082E091620081E08E0F80936200C0
:1002B800F0E0E959FF4F7082E091620081E08E0F13
:1002C80080936200F0E0E959FF4F7082E09162008C
:1002D80081E08E0F80936200F0E0E959FF4F708251
:1002E800809162008F7080936200102F802E22CF41
:1002F80089818F3FE9F18BB781113AC0BE016B5FED
:100308007F4FCE010196D0D1E091620081E08E0F3F
:1003180080936200F0E0E959FF4F8FE68083E09117
:10032800620081E08E0F80936200F0E08E81E959CF
:10033800FF4F8083E091620081E08E0F809362001E
:10034800F0E08F81E959FF4F8083E091620081E0FE
:100358008E0F80936200F0E08885E959FF4F808313
:10036800809162008F7080936200102F802EE2CE01
:100378008A818E3009F45AC080F48B3009F446C063
:1003880028F48630D1F08A30C9F17BC08C3009F46A
:1003980041C08D3009F446C074C0843C38F4803CB8
:1003A80008F048C0843109F4BBC06BC08E3C09F426
:1003B8004CC0813F09F453C064C09B81911107C0B0
:1003C8009BB79F779BBF94989598102F5BC09130EF
:1003D80051F4949A959A9AB790689ABF9BB7906887
:1003E8009BBF102F4FC0923019F49598102F4AC018
:1003F800933009F098C0959A102F44C098B32B8178
:100408002F70907F922B98BB102F3CC098B39F7091
:10041800202F8EC097B32B812F70907F922B97BB84
:10042800102F30C097B39F70202F82C096B39F7053
:10043800202F7EC0CB80D12CDC2CCC249C81C90EF3
:10044800D11C182FE12CF12C1DC0AB80B12CBA2C7B
:10045800AA249C81A90EB11C202F902F69C09091CD
:1004680063009F3F09F062C09B81909361001DBCAF
:100478001CBC9EB593609EBD949830926300102F6B
:1004880001C0102F9A8191509E3F08F052CE202F24
:10049800902FE091620031E03E0F30936200F0E06F
:1004A800E959FF4F9082E091620031E03E0F3093AE
:1004B8006200F0E0E959FF4F8083E091620081E03B
:1004C8008E0F80936200F0E0E959FF4F9083E0912E
:1004D800620081E08E0F80936200F0E0E959FF4FDF
:1004E8002083809162008F7080936200802E22CEDC
:1004F800111167CEBACEDA82CB828CB18C83BE0161
:100508006B5F7F4FCE010196CFD07ECEDA82CB8251
:100518000C83BE016B5F7F4FCE010196C5D098CE8C
:10052800202F932D05C0202F902F02C0292D902F0A
:10053800102FAFCF88E48983DA82CB828CB18C8389
:10054800BE016B5F7F4FCE010196AED05ACE80E4DC
:100558008983DA82CB828CB18C83BE016B5F7F4F3B
:10056800CE010196A1D050CE5982DA82CB820C837B
:10057800BE016B5F7F4FCE01019696D066CE498251
:10058800DA82CB820C83BE016B5F7F4FCE0101966E
:040598008BD05ECED8
:10059C001F920F920FB60F9211248F939F9380B3DB
:1005AC0088709091600091110FC08823E1F183B79E
:1005BC00887F83BF8AB780688ABF8BB780688BBF00
:1005CC008FEF8093600039C090916000993079F47E
:1005DC0093B7987F93BF9AB790689ABF9BB7906870
:1005EC009BBF811110C08FEF8093600026C090914B
:1005FC006400969590936400882329F080916400A0
:10060C00806880936400809160008F5F80936000AD
:10061C0014C083B7887F83BF8AB780688ABF8BB7C3
:10062C0080688BBFE0CF80916000893091F380911E
:10063C006400869580936400E6CF9F918F910F9014
:08064C000FBE0F901F901895DE
:100654001F920F920FB60F9211248F938091630013
:10066400893011F4949A17C0809163008A3039F468
:100674008EB5887F8EBD8FEF8093630011C080910B
:10068400610080FF02C0949A01C094988091610037
:10069400869580936100809163008F5F80936300EF
:0C06A4008F910F900FBE0F901F901895C3
:1006B000FC01A62FB72FBC016C5F7F4F419138E042
:1006C00020E0442314F4949A01C09498440FC49AEF
:1006D00090916600992311F09150F1F7220F8399C0
:1006E0002160C49890916600992311F09150F1F720
:0E06F000315039F72D93E617F70701F70895FB
:1006FE001F920F920FB60F9211248F9310926400D7
:10070E00109260008BB78F778BBF8FE082BF83B75D
:10071E00836083BF8F910F900FBE0F901F9018951F
:02072E0068CC95
:00000001FF
